{
  "contractName": "Quiz",
  "abi": [
    {
      "constant": true,
      "inputs": [
        {
          "name": "",
          "type": "uint256"
        },
        {
          "name": "",
          "type": "uint256"
        }
      ],
      "name": "winners",
      "outputs": [
        {
          "name": "",
          "type": "address"
        }
      ],
      "payable": false,
      "stateMutability": "view",
      "type": "function"
    },
    {
      "constant": true,
      "inputs": [
        {
          "name": "",
          "type": "address"
        }
      ],
      "name": "pendingReturns",
      "outputs": [
        {
          "name": "",
          "type": "uint256"
        }
      ],
      "payable": false,
      "stateMutability": "view",
      "type": "function"
    },
    {
      "constant": true,
      "inputs": [],
      "name": "moderator",
      "outputs": [
        {
          "name": "",
          "type": "address"
        }
      ],
      "payable": false,
      "stateMutability": "view",
      "type": "function"
    },
    {
      "constant": true,
      "inputs": [
        {
          "name": "",
          "type": "uint256"
        }
      ],
      "name": "que_reward",
      "outputs": [
        {
          "name": "",
          "type": "uint256"
        }
      ],
      "payable": false,
      "stateMutability": "view",
      "type": "function"
    },
    {
      "constant": true,
      "inputs": [],
      "name": "pFee",
      "outputs": [
        {
          "name": "",
          "type": "uint256"
        }
      ],
      "payable": false,
      "stateMutability": "view",
      "type": "function"
    },
    {
      "constant": true,
      "inputs": [],
      "name": "quizEnded",
      "outputs": [
        {
          "name": "",
          "type": "uint256"
        }
      ],
      "payable": false,
      "stateMutability": "view",
      "type": "function"
    },
    {
      "constant": true,
      "inputs": [],
      "name": "quizStart",
      "outputs": [
        {
          "name": "",
          "type": "uint256"
        }
      ],
      "payable": false,
      "stateMutability": "view",
      "type": "function"
    },
    {
      "constant": true,
      "inputs": [],
      "name": "prizeDetermined",
      "outputs": [
        {
          "name": "",
          "type": "bool"
        }
      ],
      "payable": false,
      "stateMutability": "view",
      "type": "function"
    },
    {
      "constant": true,
      "inputs": [],
      "name": "N",
      "outputs": [
        {
          "name": "",
          "type": "uint256"
        }
      ],
      "payable": false,
      "stateMutability": "view",
      "type": "function"
    },
    {
      "constant": true,
      "inputs": [],
      "name": "tFee",
      "outputs": [
        {
          "name": "",
          "type": "uint256"
        }
      ],
      "payable": false,
      "stateMutability": "view",
      "type": "function"
    },
    {
      "inputs": [
        {
          "name": "_N",
          "type": "uint256"
        },
        {
          "name": "_pFee",
          "type": "uint256"
        },
        {
          "name": "quizDuration",
          "type": "uint256"
        }
      ],
      "payable": false,
      "stateMutability": "nonpayable",
      "type": "constructor"
    },
    {
      "anonymous": false,
      "inputs": [
        {
          "indexed": false,
          "name": "_N",
          "type": "uint256"
        },
        {
          "indexed": false,
          "name": "_pFee",
          "type": "uint256"
        }
      ],
      "name": "quizCreated",
      "type": "event"
    },
    {
      "anonymous": false,
      "inputs": [
        {
          "indexed": false,
          "name": "_addr",
          "type": "address"
        }
      ],
      "name": "playerRegistered",
      "type": "event"
    },
    {
      "constant": true,
      "inputs": [
        {
          "name": "a",
          "type": "string"
        },
        {
          "name": "b",
          "type": "string"
        }
      ],
      "name": "compareStrings",
      "outputs": [
        {
          "name": "",
          "type": "bool"
        }
      ],
      "payable": false,
      "stateMutability": "view",
      "type": "function"
    },
    {
      "constant": false,
      "inputs": [],
      "name": "register",
      "outputs": [],
      "payable": true,
      "stateMutability": "payable",
      "type": "function"
    },
    {
      "constant": false,
      "inputs": [
        {
          "name": "_statement",
          "type": "string"
        },
        {
          "name": "_ans",
          "type": "string"
        }
      ],
      "name": "addQuestion",
      "outputs": [],
      "payable": false,
      "stateMutability": "nonpayable",
      "type": "function"
    },
    {
      "constant": false,
      "inputs": [
        {
          "name": "_qInd",
          "type": "uint256"
        }
      ],
      "name": "getQuestion",
      "outputs": [
        {
          "name": "",
          "type": "string"
        }
      ],
      "payable": false,
      "stateMutability": "nonpayable",
      "type": "function"
    },
    {
      "constant": false,
      "inputs": [
        {
          "name": "_qInd",
          "type": "uint256"
        },
        {
          "name": "ans",
          "type": "string"
        }
      ],
      "name": "answerQuestion",
      "outputs": [
        {
          "name": "",
          "type": "bool"
        }
      ],
      "payable": false,
      "stateMutability": "nonpayable",
      "type": "function"
    },
    {
      "constant": false,
      "inputs": [],
      "name": "prizeDetermine",
      "outputs": [],
      "payable": false,
      "stateMutability": "nonpayable",
      "type": "function"
    },
    {
      "constant": false,
      "inputs": [],
      "name": "withdraw",
      "outputs": [
        {
          "name": "",
          "type": "bool"
        }
      ],
      "payable": false,
      "stateMutability": "nonpayable",
      "type": "function"
    },
    {
      "constant": true,
      "inputs": [],
      "name": "getBalance",
      "outputs": [
        {
          "name": "",
          "type": "uint256"
        }
      ],
      "payable": false,
      "stateMutability": "view",
      "type": "function"
    }
  ],
  "bytecode": "0x608060405260006003556000600660006101000a81548160ff02191690831515021790555034801561003057600080fd5b506040516060806119d2833981018060405281019080805190602001909291908051906020019092919080519060200190929190505050336000806101000a81548173ffffffffffffffffffffffffffffffffffffffff021916908373ffffffffffffffffffffffffffffffffffffffff1602179055508260018190555081600281905550426005819055508042016004819055507fad196467e49d47aee90bab99c0aed900185db3103da08ac85bbbea189f3ed33f600154600254604051808381526020018281526020019250505060405180910390a15050506118b88061011a6000396000f3006080604052600436106100fc576000357c0100000000000000000000000000000000000000000000000000000000900463ffffffff1680630efc88651461010157806312065fe0146101785780631aa3a008146101a357806326b387bb146101ad57806338743904146102045780633ccfd60b1461025b578063447e52a01461028a5780634ce3da3d1461031557806360c591461461035657806368a8bf5b146103815780637a087cd8146103ac5780638b3f56a4146103d7578063a0ec18eb146103ee578063a65f2ee31461049d578063bed34bba146104cc578063c9e525df14610593578063d14bf77f146105be578063db88176f146105e9575b600080fd5b34801561010d57600080fd5b50610136600480360381019080803590602001909291908035906020019092919050505061068f565b604051808273ffffffffffffffffffffffffffffffffffffffff1673ffffffffffffffffffffffffffffffffffffffff16815260200191505060405180910390f35b34801561018457600080fd5b5061018d6106dc565b6040518082815260200191505060405180910390f35b6101ab6106fb565b005b3480156101b957600080fd5b506101ee600480360381019080803573ffffffffffffffffffffffffffffffffffffffff169060200190929190505050610a64565b6040518082815260200191505060405180910390f35b34801561021057600080fd5b50610219610a7c565b604051808273ffffffffffffffffffffffffffffffffffffffff1673ffffffffffffffffffffffffffffffffffffffff16815260200191505060405180910390f35b34801561026757600080fd5b50610270610aa1565b604051808215151515815260200191505060405180910390f35b34801561029657600080fd5b506102fb60048036038101908080359060200190929190803590602001908201803590602001908080601f0160208091040260200160405190810160405280939291908181526020018383808284378201915050505050509192919290505050610b84565b604051808215151515815260200191505060405180910390f35b34801561032157600080fd5b5061034060048036038101908080359060200190929190505050610f92565b6040518082815260200191505060405180910390f35b34801561036257600080fd5b5061036b610faa565b6040518082815260200191505060405180910390f35b34801561038d57600080fd5b50610396610fb0565b6040518082815260200191505060405180910390f35b3480156103b857600080fd5b506103c1610fb6565b6040518082815260200191505060405180910390f35b3480156103e357600080fd5b506103ec610fbc565b005b3480156103fa57600080fd5b5061049b600480360381019080803590602001908201803590602001908080601f0160208091040260200160405190810160405280939291908181526020018383808284378201915050505050509192919290803590602001908201803590602001908080601f016020809104026020016040519081016040528093929190818152602001838380828437820191505050505050919291929050505061106b565b005b3480156104a957600080fd5b506104b26111da565b604051808215151515815260200191505060405180910390f35b3480156104d857600080fd5b50610579600480360381019080803590602001908201803590602001908080601f0160208091040260200160405190810160405280939291908181526020018383808284378201915050505050509192919290803590602001908201803590602001908080601f01602080910402602001604051908101604052809392919081815260200183838082843782019150505050505091929192905050506111ed565b604051808215151515815260200191505060405180910390f35b34801561059f57600080fd5b506105a86112c6565b6040518082815260200191505060405180910390f35b3480156105ca57600080fd5b506105d36112cc565b6040518082815260200191505060405180910390f35b3480156105f557600080fd5b50610614600480360381019080803590602001909291905050506112d2565b6040518080602001828103825283818151815260200191508051906020019080838360005b83811015610654578082015181840152602081019050610639565b50505050905090810190601f1680156106815780820380516001836020036101000a031916815260200191505b509250505060405180910390f35b6008602052816000526040600020818154811015156106aa57fe5b906000526020600020016000915091509054906101000a900473ffffffffffffffffffffffffffffffffffffffff1681565b60003073ffffffffffffffffffffffffffffffffffffffff1631905090565b60008060009150600090505b600b8054905081101561079657600b8181548110151561072357fe5b9060005260206000200160000160009054906101000a900473ffffffffffffffffffffffffffffffffffffffff1673ffffffffffffffffffffffffffffffffffffffff163373ffffffffffffffffffffffffffffffffffffffff16141561078957600191505b8080600101915050610707565b60001515821515141515610812576040517f08c379a00000000000000000000000000000000000000000000000000000000081526004018080602001828103825260198152602001807f506c6179657220616c726561647920726567697374657265640000000000000081525060200191505060405180910390fd5b600154600b80549050101515610890576040517f08c379a00000000000000000000000000000000000000000000000000000000081526004018080602001828103825260148152602001807f506c617965722073706163652069732066756c6c00000000000000000000000081525060200191505060405180910390fd5b600254341015151561090a576040517f08c379a00000000000000000000000000000000000000000000000000000000081526004018080602001828103825260178152602001807f496e73756666696369656e742066756e64732073656e7400000000000000000081525060200191505060405180910390fd5b6002543403600760003373ffffffffffffffffffffffffffffffffffffffff1673ffffffffffffffffffffffffffffffffffffffff16815260200190815260200160002081905550600b6020604051908101604052803373ffffffffffffffffffffffffffffffffffffffff1681525090806001815401808255809150509060018203906000526020600020016000909192909190915060008201518160000160006101000a81548173ffffffffffffffffffffffffffffffffffffffff021916908373ffffffffffffffffffffffffffffffffffffffff1602179055505050506002546003600082825401925050819055507f9b66d49082843aa418cd502edc3b870cda1cef5aa3c1e289ca61475532afd35633604051808273ffffffffffffffffffffffffffffffffffffffff1673ffffffffffffffffffffffffffffffffffffffff16815260200191505060405180910390a15050565b60076020528060005260406000206000915090505481565b6000809054906101000a900473ffffffffffffffffffffffffffffffffffffffff1681565b600080600760003373ffffffffffffffffffffffffffffffffffffffff1673ffffffffffffffffffffffffffffffffffffffff1681526020019081526020016000205490506000811115610b7c576000600760003373ffffffffffffffffffffffffffffffffffffffff1673ffffffffffffffffffffffffffffffffffffffff168152602001908152602001600020819055503373ffffffffffffffffffffffffffffffffffffffff166108fc829081150290604051600060405180830381858888f19350505050158015610b7a573d6000803e3d6000fd5b505b600191505090565b60008060008060009150600090505b600b80549050811015610c2257600b81815481101515610baf57fe5b9060005260206000200160000160009054906101000a900473ffffffffffffffffffffffffffffffffffffffff1673ffffffffffffffffffffffffffffffffffffffff163373ffffffffffffffffffffffffffffffffffffffff161415610c1557600191505b8080600101915050610b93565b60011515821515141515610c9e576040517f08c379a00000000000000000000000000000000000000000000000000000000081526004018080602001828103825260148152602001807f506c61796572206973207265676973746572656400000000000000000000000081525060200191505060405180910390fd5b6004548042101515610d18576040517f08c379a00000000000000000000000000000000000000000000000000000000081526004018080602001828103825260088152602001807f546f6f206c61746500000000000000000000000000000000000000000000000081525060200191505060405180910390fd5b600093505b600a60003373ffffffffffffffffffffffffffffffffffffffff1673ffffffffffffffffffffffffffffffffffffffff16815260200190815260200160002080549050841015610ddb5786600a60003373ffffffffffffffffffffffffffffffffffffffff1673ffffffffffffffffffffffffffffffffffffffff16815260200190815260200160002085815481101515610db457fe5b90600052602060002001541415610dce5760009450610f88565b8380600101945050610d1d565b600a60003373ffffffffffffffffffffffffffffffffffffffff1673ffffffffffffffffffffffffffffffffffffffff168152602001908152602001600020879080600181540180825580915050906001820390600052602060002001600090919290919091505550610f06600c88815481101515610e5657fe5b90600052602060002090600202016001018054600181600116156101000203166002900480601f016020809104026020016040519081016040528092919081815260200182805460018160011615610100020316600290048015610efb5780601f10610ed057610100808354040283529160200191610efb565b820191906000526020600020905b815481529060010190602001808311610ede57829003601f168201915b5050505050876111ed565b15610f8357600860008881526020019081526020016000203390806001815401808255809150509060018203906000526020600020016000909192909190916101000a81548173ffffffffffffffffffffffffffffffffffffffff021916908373ffffffffffffffffffffffffffffffffffffffff160217905550505b600194505b5050505092915050565b60096020528060005260406000206000915090505481565b60025481565b60045481565b60055481565b600080600091505b600482101561104c576000905060006008600084815260200190815260200160002080549050111561102757600860008381526020019081526020016000208054905060100260035460030281151561101957fe5b04905061102682826115b2565b5b8060096000848152602001908152602001600020819055508180600101925050610fc4565b6001600660006101000a81548160ff0219169083151502179055505050565b6000809054906101000a900473ffffffffffffffffffffffffffffffffffffffff168073ffffffffffffffffffffffffffffffffffffffff163373ffffffffffffffffffffffffffffffffffffffff16141515611156576040517f08c379a00000000000000000000000000000000000000000000000000000000081526004018080602001828103825260228152602001807f4e6f7420617574686f726973656420746f2063616c6c2074686973206d65746881526020017f6f6400000000000000000000000000000000000000000000000000000000000081525060400191505060405180910390fd5b600c6040805190810160405280858152602001848152509080600181540180825580915050906001820390600052602060002090600202016000909192909190915060008201518160000190805190602001906111b49291906117e7565b5060208201518160010190805190602001906111d19291906117e7565b50505050505050565b600660009054906101000a900460ff1681565b6000816040518082805190602001908083835b6020831015156112255780518252602082019150602081019050602083039250611200565b6001836020036101000a038019825116818451168082178552505050505050905001915050604051809103902060001916836040518082805190602001908083835b60208310151561128c5780518252602082019150602081019050602083039250611267565b6001836020036101000a03801982511681845116808217855250505050505090500191505060405180910390206000191614905092915050565b60015481565b60035481565b60606000806000809150600090505b600b8054905081101561137057600b818154811015156112fd57fe5b9060005260206000200160000160009054906101000a900473ffffffffffffffffffffffffffffffffffffffff1673ffffffffffffffffffffffffffffffffffffffff163373ffffffffffffffffffffffffffffffffffffffff16141561136357600191505b80806001019150506112e1565b600115158215151415156113ec576040517f08c379a00000000000000000000000000000000000000000000000000000000081526004018080602001828103825260148152602001807f506c61796572206973207265676973746572656400000000000000000000000081525060200191505060405180910390fd5b6004548042101515611466576040517f08c379a00000000000000000000000000000000000000000000000000000000081526004018080602001828103825260088152602001807f546f6f206c61746500000000000000000000000000000000000000000000000081525060200191505060405180910390fd5b600086101580156114775750600486105b15156114eb576040517f08c379a000000000000000000000000000000000000000000000000000000000815260040180806020018281038252601a8152602001807f496e76616c696420696e64657820666f72207175657374696f6e00000000000081525060200191505060405180910390fd5b600c868154811015156114fa57fe5b90600052602060002090600202016000019350838054600181600116156101000203166002900480601f0160208091040260200160405190810160405280929190818152602001828054600181600116156101000203166002900480156115a25780601f10611577576101008083540402835291602001916115a2565b820191906000526020600020905b81548152906001019060200180831161158557829003601f168201915b5050505050945050505050919050565b60008060009054906101000a900473ffffffffffffffffffffffffffffffffffffffff168073ffffffffffffffffffffffffffffffffffffffff163373ffffffffffffffffffffffffffffffffffffffff1614151561169f576040517f08c379a00000000000000000000000000000000000000000000000000000000081526004018080602001828103825260228152602001807f4e6f7420617574686f726973656420746f2063616c6c2074686973206d65746881526020017f6f6400000000000000000000000000000000000000000000000000000000000081525060400191505060405180910390fd5b6004548042111515611719576040517f08c379a00000000000000000000000000000000000000000000000000000000081526004018080602001828103825260098152602001807f546f6f206561726c79000000000000000000000000000000000000000000000081525060200191505060405180910390fd5b600092505b60086000868152602001908152602001600020805490508310156117e0578360076000600860008981526020019081526020016000208681548110151561176157fe5b9060005260206000200160009054906101000a900473ffffffffffffffffffffffffffffffffffffffff1673ffffffffffffffffffffffffffffffffffffffff1673ffffffffffffffffffffffffffffffffffffffff16815260200190815260200160002060008282540192505081905550828060010193505061171e565b5050505050565b828054600181600116156101000203166002900490600052602060002090601f016020900481019282601f1061182857805160ff1916838001178555611856565b82800160010185558215611856579182015b8281111561185557825182559160200191906001019061183a565b5b5090506118639190611867565b5090565b61188991905b8082111561188557600081600090555060010161186d565b5090565b905600a165627a7a72305820dbe619a0c5f645b5ef06cdd11fee462af79ef1616417af580064115a12c854d50029",
  "source": "pragma solidity ^0.4.24;\ncontract Quiz\n{\n    address public moderator;\n    uint public N; // No. of participants\n    uint public pFee; // Participation fee for each player\n    uint public tFee = 0;\n    uint256 public quizEnded;\n    uint256 public quizStart;\n    bool public prizeDetermined=false;\n    mapping(address => uint256) public pendingReturns;\n    mapping(uint => address[]) public winners;\n    mapping(uint => uint) public que_reward;\n    mapping(address => uint[]) private answered;\n\n    struct Player\n    {\n        address addr;\n    }\n\n    struct Question\n    {\n        string statement;\n        string ans;\n    }\n\n    Player[] players;\n    Question[] questions;\n\n    constructor (uint _N, uint _pFee, uint quizDuration)\n    public\n    {\n        moderator = msg.sender;\n        N = _N;\n        pFee = _pFee;\n        quizStart = now;\n        quizEnded = now + quizDuration;\n\n        emit quizCreated(N, pFee);\n    }\n\n    // Modifiers\n    modifier onlyBy(address account)\n    {\n        require(msg.sender == account, \"Not authorised to call this method\");\n        _;\n    }\n    modifier onlyIfTrue(bool x)\n    {\n        require(x == true, \"Value of variable should be true\");\n        _;\n    }\n    modifier isNotPlayer()\n    {\n        bool flag = false;\n        for(uint i=0; i< players.length; i++)\n        {\n            if(msg.sender == players[i].addr)\n            {\n                flag = true;\n            }\n        }\n        require(flag == false, \"Player already registered\");\n        _;\n    }\n    modifier isPlayer()\n    {\n        bool flag = false;\n        for(uint i=0; i< players.length; i++)\n        {\n            if(msg.sender == players[i].addr)\n            {\n                flag = true;\n            }\n        }\n        require(flag == true, \"Player is registered\");\n        _;\n    }\n    modifier onlyBefore(uint256 time)\n    {\n        require(now < time, \"Too late\");\n        _;\n    }\n    modifier onlyAfter(uint256 time)\n    {\n        require(now > time, \"Too early\");\n        _;\n    }\n\n    // Events\n    event quizCreated(uint _N, uint _pFee);\n    event playerRegistered(address _addr);\n\n    // Functions\n\n    /* Helper function to compare two strings */\n    function compareStrings (string a, string b)\n    view\n    returns (bool)\n    {\n       return keccak256(a) == keccak256(b);\n    }\n\n    /* Player registers with a minimum fee, set to 100 wei */\n    function register()\n    isNotPlayer()\n    payable\n    public\n    {\n        require(players.length < N, \"Player space is full\");\n        require(msg.value >= pFee, \"Insufficient funds sent\");\n\n        pendingReturns[msg.sender] = msg.value - pFee;\n        players.push(Player({\n            addr: msg.sender\n        }));\n        tFee += pFee;\n        emit playerRegistered(msg.sender);\n    }\n\n    /* Moderator adds a question consisting of a statement(string) and ans (string) */\n    function addQuestion(string _statement, string _ans)\n    onlyBy(moderator)\n    public\n    {\n        questions.push(Question({\n            statement: _statement,\n            ans: _ans\n\n        }));\n    }\n\n    /* Player gets a question statement by providing index (0 <= i < 4) */\n    function getQuestion(uint _qInd)\n    isPlayer()\n    onlyBefore(quizEnded)\n    public\n    returns(string)\n    {\n        require(_qInd >= 0 && _qInd < 4, \"Invalid index for question\");\n\n        string question = questions[_qInd].statement;\n        return question;\n    }\n\n    /* Player answers a question providing index of the question, and the answer */\n    function answerQuestion(uint _qInd, string ans)\n    isPlayer()\n    onlyBefore(quizEnded)\n    public\n    returns (bool)\n    {\n        // for(uint i=0;i<winners[_qInd].length;i++)\n        // {\n        //     if(msg.sender == winners[_qInd][i])\n        //     {\n        //         return false;\n        //     }\n        // }\n        for (uint i = 0;i<answered[msg.sender].length;i++) {\n            if (answered[msg.sender][i] == _qInd) {\n                return false;\n            }\n        }\n        answered[msg.sender].push(_qInd);\n        if(compareStrings(questions[_qInd].ans, ans))\n        {\n            winners[_qInd].push(msg.sender);\n        }\n        return true;\n    }\n\n    /* After all the players have answered, the prize for each winner is determined */\n    function prizeDetermine()\n    // onlyAfter(quizEnded)\n    // onlyBy(moderator)\n    public\n    {\n        for(uint i=0;i<4;i++)\n        {\n            uint256 reward = 0;\n            if(winners[i].length > 0)\n            {\n                reward = (3*tFee)/(16*winners[i].length);\n                prizeDetHelper(i, reward);\n            }\n            que_reward[i] = reward;\n        }\n        prizeDetermined = true;\n    }\n\n    function prizeDetHelper(uint _qInd, uint256 reward)\n    onlyBy(moderator)\n    onlyAfter(quizEnded)\n    private\n    {\n        for(uint i=0; i<winners[_qInd].length;i++)\n        {\n            pendingReturns[winners[_qInd][i]] += reward;\n        }\n    }\n\n    /* Player withdraws his winnnings, if any */\n    function withdraw()\n    // onlyAfter(quizEnded)\n    // onlyIfTrue(prizeDetermined)\n    public\n    returns (bool)\n    {\n        uint256 amount = pendingReturns[msg.sender];\n        if (amount > 0)\n        {\n            pendingReturns[msg.sender] = 0;\n            msg.sender.transfer(amount);\n        }\n        return true;\n    }\n\n    function getBalance() \n    public view \n    returns (uint256) {\n        return address(this).balance;\n    }\n}",
  "sourcePath": "/home/dungeonmaster/Desktop/blockchain/decentralized-quiz-app/contracts/Quiz.sol",
  "compiler": {
    "name": "solc",
    "version": "0.4.24+commit.e67f0147.Emscripten.clang"
  },
  "schemaVersion": "2.0.1",
  "updatedAt": "2018-11-01T17:25:01.445Z"
}