{
  "contractName": "Quiz",
  "abi": [
    {
      "constant": true,
      "inputs": [],
      "name": "moderator",
      "outputs": [
        {
          "name": "",
          "type": "address"
        }
      ],
      "payable": false,
      "stateMutability": "view",
      "type": "function"
    },
    {
      "constant": true,
      "inputs": [],
      "name": "pFee",
      "outputs": [
        {
          "name": "",
          "type": "uint256"
        }
      ],
      "payable": false,
      "stateMutability": "view",
      "type": "function"
    },
    {
      "constant": true,
      "inputs": [],
      "name": "N",
      "outputs": [
        {
          "name": "",
          "type": "uint256"
        }
      ],
      "payable": false,
      "stateMutability": "view",
      "type": "function"
    },
    {
      "constant": true,
      "inputs": [],
      "name": "tFee",
      "outputs": [
        {
          "name": "",
          "type": "uint256"
        }
      ],
      "payable": false,
      "stateMutability": "view",
      "type": "function"
    },
    {
      "inputs": [
        {
          "name": "_N",
          "type": "uint256"
        },
        {
          "name": "_pFee",
          "type": "uint256"
        }
      ],
      "payable": false,
      "stateMutability": "nonpayable",
      "type": "constructor"
    },
    {
      "anonymous": false,
      "inputs": [
        {
          "indexed": false,
          "name": "_N",
          "type": "uint256"
        },
        {
          "indexed": false,
          "name": "_pFee",
          "type": "uint256"
        }
      ],
      "name": "quizCreated",
      "type": "event"
    },
    {
      "anonymous": false,
      "inputs": [
        {
          "indexed": false,
          "name": "_addr",
          "type": "address"
        }
      ],
      "name": "playerRegistered",
      "type": "event"
    },
    {
      "constant": false,
      "inputs": [],
      "name": "register",
      "outputs": [],
      "payable": true,
      "stateMutability": "payable",
      "type": "function"
    },
    {
      "constant": false,
      "inputs": [],
      "name": "withdraw",
      "outputs": [
        {
          "name": "",
          "type": "bool"
        }
      ],
      "payable": false,
      "stateMutability": "nonpayable",
      "type": "function"
    },
    {
      "constant": false,
      "inputs": [
        {
          "name": "_statement",
          "type": "bytes32"
        },
        {
          "name": "_opts",
          "type": "bytes32[]"
        },
        {
          "name": "_ansInd",
          "type": "uint256"
        }
      ],
      "name": "addQuestion",
      "outputs": [],
      "payable": false,
      "stateMutability": "nonpayable",
      "type": "function"
    },
    {
      "constant": false,
      "inputs": [],
      "name": "getQuestions",
      "outputs": [
        {
          "name": "",
          "type": "bytes32"
        }
      ],
      "payable": false,
      "stateMutability": "nonpayable",
      "type": "function"
    },
    {
      "constant": false,
      "inputs": [],
      "name": "answerQuestion",
      "outputs": [],
      "payable": false,
      "stateMutability": "nonpayable",
      "type": "function"
    },
    {
      "constant": false,
      "inputs": [],
      "name": "checkAnswers",
      "outputs": [],
      "payable": false,
      "stateMutability": "nonpayable",
      "type": "function"
    }
  ],
  "bytecode": "0x608060405260006003556000600460006101000a81548160ff02191690831515021790555034801561003057600080fd5b50604051604080610c1e8339810180604052810190808051906020019092919080519060200190929190505050336000806101000a81548173ffffffffffffffffffffffffffffffffffffffff021916908373ffffffffffffffffffffffffffffffffffffffff16021790555081600181905550806002819055507fad196467e49d47aee90bab99c0aed900185db3103da08ac85bbbea189f3ed33f600154600254604051808381526020018281526020019250505060405180910390a15050610b1f806100ff6000396000f3006080604052600436106100a4576000357c0100000000000000000000000000000000000000000000000000000000900463ffffffff168063065eaecc146100a95780631aa3a008146100c057806338743904146100ca5780633ccfd60b1461012157806360c591461461015057806374f1cfbc1461017b57806397221ab714610192578063c9e525df146101c5578063d14bf77f146101f0578063df3746531461021b575b600080fd5b3480156100b557600080fd5b506100be610299565b005b6100c8610387565b005b3480156100d657600080fd5b506100df6106d9565b604051808273ffffffffffffffffffffffffffffffffffffffff1673ffffffffffffffffffffffffffffffffffffffff16815260200191505060405180910390f35b34801561012d57600080fd5b506101366106fe565b604051808215151515815260200191505060405180910390f35b34801561015c57600080fd5b5061016561086e565b6040518082815260200191505060405180910390f35b34801561018757600080fd5b50610190610874565b005b34801561019e57600080fd5b506101a7610876565b60405180826000191660001916815260200191505060405180910390f35b3480156101d157600080fd5b506101da610993565b6040518082815260200191505060405180910390f35b3480156101fc57600080fd5b50610205610999565b6040518082815260200191505060405180910390f35b34801561022757600080fd5b506102976004803603810190808035600019169060200190929190803590602001908201803590602001908080602002602001604051908101604052809392919081815260200183836020028082843782019150505050505091929192908035906020019092919050505061099f565b005b6000809054906101000a900473ffffffffffffffffffffffffffffffffffffffff168073ffffffffffffffffffffffffffffffffffffffff163373ffffffffffffffffffffffffffffffffffffffff16141515610384576040517f08c379a00000000000000000000000000000000000000000000000000000000081526004018080602001828103825260228152602001807f4e6f7420617574686f726973656420746f2063616c6c2074686973206d65746881526020017f6f6400000000000000000000000000000000000000000000000000000000000081525060400191505060405180910390fd5b50565b60008060009150600090505b600680549050811015610422576006818154811015156103af57fe5b9060005260206000200160000160009054906101000a900473ffffffffffffffffffffffffffffffffffffffff1673ffffffffffffffffffffffffffffffffffffffff163373ffffffffffffffffffffffffffffffffffffffff16141561041557600191505b8080600101915050610393565b6000151582151514151561049e576040517f08c379a00000000000000000000000000000000000000000000000000000000081526004018080602001828103825260198152602001807f506c6179657220616c726561647920726567697374657265640000000000000081525060200191505060405180910390fd5b60015460068054905010151561051c576040517f08c379a00000000000000000000000000000000000000000000000000000000081526004018080602001828103825260148152602001807f506c617965722073706163652069732066756c6c00000000000000000000000081525060200191505060405180910390fd5b60025434111515610595576040517f08c379a00000000000000000000000000000000000000000000000000000000081526004018080602001828103825260178152602001807f496e73756666696369656e742066756e64732073656e7400000000000000000081525060200191505060405180910390fd5b34600560003373ffffffffffffffffffffffffffffffffffffffff1673ffffffffffffffffffffffffffffffffffffffff1681526020019081526020016000208190555060066020604051908101604052803373ffffffffffffffffffffffffffffffffffffffff1681525090806001815401808255809150509060018203906000526020600020016000909192909190915060008201518160000160006101000a81548173ffffffffffffffffffffffffffffffffffffffff021916908373ffffffffffffffffffffffffffffffffffffffff1602179055505050507f9b66d49082843aa418cd502edc3b870cda1cef5aa3c1e289ca61475532afd35633604051808273ffffffffffffffffffffffffffffffffffffffff1673ffffffffffffffffffffffffffffffffffffffff16815260200191505060405180910390a15050565b6000809054906101000a900473ffffffffffffffffffffffffffffffffffffffff1681565b600080600460009054906101000a900460ff166001151581151514151561078d576040517f08c379a00000000000000000000000000000000000000000000000000000000081526004018080602001828103825260208152602001807f56616c7565206f66207661726961626c652073686f756c64206265207472756581525060200191505060405180910390fd5b600560003373ffffffffffffffffffffffffffffffffffffffff1673ffffffffffffffffffffffffffffffffffffffff1681526020019081526020016000205491506000821115610865576000600560003373ffffffffffffffffffffffffffffffffffffffff1673ffffffffffffffffffffffffffffffffffffffff168152602001908152602001600020819055503373ffffffffffffffffffffffffffffffffffffffff166108fc839081150290604051600060405180830381858888f19350505050158015610863573d6000803e3d6000fd5b505b60019250505090565b60025481565b565b6000806000809150600090505b6006805490508110156109125760068181548110151561089f57fe5b9060005260206000200160000160009054906101000a900473ffffffffffffffffffffffffffffffffffffffff1673ffffffffffffffffffffffffffffffffffffffff163373ffffffffffffffffffffffffffffffffffffffff16141561090557600191505b8080600101915050610883565b6001151582151514151561098e576040517f08c379a00000000000000000000000000000000000000000000000000000000081526004018080602001828103825260148152602001807f506c61796572206973207265676973746572656400000000000000000000000081525060200191505060405180910390fd5b505090565b60015481565b60035481565b6000809054906101000a900473ffffffffffffffffffffffffffffffffffffffff168073ffffffffffffffffffffffffffffffffffffffff163373ffffffffffffffffffffffffffffffffffffffff16141515610a8a576040517f08c379a00000000000000000000000000000000000000000000000000000000081526004018080602001828103825260228152602001807f4e6f7420617574686f726973656420746f2063616c6c2074686973206d65746881526020017f6f6400000000000000000000000000000000000000000000000000000000000081525060400191505060405180910390fd5b600760408051908101604052808660001916815260200184815250908060018154018082558091505090600182039060005260206000209060020201600090919290919091506000820151816000019060001916905560208201518160010155505050505050505600a165627a7a723058202da2db517a49913b851b07a1f3af470312b581e18c4b1bbabe4f2eba5bf51b8d0029",
  "source": "pragma solidity ^0.4.24;\ncontract Quiz\n{\n    address public moderator;\n    uint public N; // No. of participants\n    uint public pFee; // Participation fee for each player\n    uint public tFee = 0;\n    bool quizEnded = false;\n    mapping(address => uint256) pendingReturns;\n\n    struct Player\n    {\n        address addr;\n    }\n\n    struct Question\n    {\n        bytes32 statement;\n        // bytes32[] options;\n        uint ansInd;\n    }\n\n    Player[] players;\n    Question[] questions;\n\n    constructor (uint _N, uint _pFee)\n    public\n    {\n        moderator = msg.sender;\n        N = _N;\n        pFee = _pFee;\n\n        emit quizCreated(N, pFee);\n    }\n\n    // Modifiers\n    modifier onlyBy(address account)\n    {\n        require(msg.sender == account, \"Not authorised to call this method\");\n        _;\n    }\n    modifier onlyIfTrue(bool x)\n    {\n        require(x == true, \"Value of variable should be true\");\n        _;\n    }\n    modifier isNotPlayer()\n    {\n        bool flag = false;\n        for(uint i=0; i< players.length; i++)\n        {\n            if(msg.sender == players[i].addr)\n            {\n                flag = true;\n            }\n        }\n        require(flag == false, \"Player already registered\");\n        _;\n    }\n    modifier isPlayer()\n    {\n        bool flag = false;\n        for(uint i=0; i< players.length; i++)\n        {\n            if(msg.sender == players[i].addr)\n            {\n                flag = true;\n            }\n        }\n        require(flag == true, \"Player is registered\");\n        _;\n    }\n    // Events\n    event quizCreated(uint _N, uint _pFee);\n    event playerRegistered(address _addr);\n\n    // Functions\n    function register()\n    isNotPlayer()\n    payable\n    public\n    {\n        require(players.length < N, \"Player space is full\");\n        require(msg.value > pFee, \"Insufficient funds sent\");\n\n        // Units of fee?\n        pendingReturns[msg.sender] = msg.value;\n        // Subtract the  pFee here\n        players.push(Player({\n            addr: msg.sender\n        }));\n\n        emit playerRegistered(msg.sender);\n    }\n\n\n    function withdraw()\n    onlyIfTrue(quizEnded)\n    public\n    returns (bool)\n    {\n        uint256 amount = pendingReturns[msg.sender];\n        if (amount > 0)\n        {\n            pendingReturns[msg.sender] = 0;\n            msg.sender.transfer(amount);\n        }\n        return true;\n    }\n\n\n    function addQuestion(bytes32 _statement, bytes32[] _opts, uint _ansInd) // bytes32 uses less gas than string\n    onlyBy(moderator)\n    public\n    {\n        questions.push(Question({\n            statement: _statement,\n            // options: _opts,\n            ansInd: _ansInd\n        }));\n        // add question to questions array\n        //TODO: prevent invalid question/options\n    }\n\n    // Player should not be able to know a question in advance\n    // Player should get a question, and an identifier,\n    //TODO: some time constraint to answer the question, once it has been retrieved by player?\n    function getQuestions() // should return statement and/or options somehow\n    isPlayer()\n    returns(bytes32)\n    {\n        \n    }\n\n    // Player should be able to answer a question,\n    function answerQuestion() // Args? quesIdentifier, ansIndex\n    {\n\n    }\n\n    // Check whether answers given by players are correct or incorrect\n    function checkAnswers()\n    onlyBy(moderator)\n    {\n\n    }\n\n}\n",
  "sourcePath": "/home/apoorav/Documents/blockchain/decentralized-quiz-app/contracts/Quiz.sol",
  "compiler": {
    "name": "solc",
    "version": "0.4.24+commit.e67f0147.Emscripten.clang"
  },
  "schemaVersion": "2.0.1",
  "updatedAt": "2018-10-27T10:31:51.626Z"
}